:020000040800F2
:100000000000022051250008ED1A0008EF1A000830
:10001000F11A0008F31A0008F51A000800000000A1
:10002000000000000000000000000000717D0008DA
:10003000F71A000800000000117E0008F91A0008F5
:10004000A1250008A1250008A1250008A125000878
:10005000A1250008A12500080F1B0008A125000804
:10006000A1250008A1250008191B0008A1250008EA
:10007000251B0008A1250008A1250008A1250008CE
:10008000A1250008A1250008A1250008A125000838
:10009000351B0008A1250008A1250008451B000804
:1000A000A1250008A1250008A1250008A125000818
:1000B000A1250008A1250008A1250008A125000808
:1000C000A1250008A1250008A1250008A1250008F8
:1000D000A1250008A1250008A1250008E5D90008F0
:1000E000A1250008A1250008A1250008A1250008D8
:1000F000A1250008A1250008A1250008A1250008C8
:10010000A1250008A1250008A1250008A1250008B7
:10011000A1250008A1250008A1250008A1250008A7
:10012000A1250008511B0008FD9F0008611B000865
:10013000A1250008A1250008A1250008A125000887
:10014000711B0008A1250008A1250008811B0008DB
:10015000A1250008911B0008A12500086DC8000812
:10016000A1250008A1250008A1250008A125000857
:10017000A1250008A1250008A12500080000000015
:08018000A1250008A1250008DB
:1001C00010B5054C237833B9044B13B10448AFF391
:1001D00000800123237010BD6C0700200000000088
:1001E0000430010808B5034B1BB103490348AFF3C2
:1001F000008008BD000000007007002004300108E6
:1002000081F0004102E000BF83F0004330B54FEAC7
:1002100041044FEA430594EA050F08BF90EA020F34
:100220001FBF54EA000C55EA020C7FEA645C7FEAC7
:10023000655C00F0E2804FEA5454D4EB5555B8BFEA
:100240006D420CDD2C4480EA020281EA030382EA5B
:10025000000083EA010180EA020281EA0303362DED
:1002600088BF30BD11F0004F4FEA01314FF4801CC0
:100270004CEA113102D0404261EB410113F0004FD2
:100280004FEA03334CEA133302D0524263EB430389
:1002900094EA050F00F0A780A4F10104D5F1200E27
:1002A0000DDB02FA0EFC22FA05F2801841F1000182
:1002B00003FA0EF2801843FA05F359410EE0A5F156
:1002C00020050EF1200E012A03FA0EFC28BF4CF087
:1002D000020C43FA05F3C01851EBE37101F000453D
:1002E00007D54FF0000EDCF1000C7EEB00006EEB4A
:1002F0000101B1F5801F1BD3B1F5001F0CD34908D4
:100300005FEA30004FEA3C0C04F101044FEA44522A
:1003100012F5800F80F09A80BCF1004F08BF5FEAB1
:10032000500C50F1000041EB045141EA050130BD91
:100330005FEA4C0C404141EB0101013C28BFB1F5A3
:10034000801FE9D291F0000F04BF01460020B1FAEE
:1003500081F308BF2033A3F10B03B3F120020CDAC1
:100360000C3208DD02F1140CC2F10C0201FA0CF09F
:1003700021FA02F10CE002F11402D8BFC2F1200C04
:1003800001FA02F120FA0CFCDCBF41EA0C019040BA
:10039000E41AA2BF01EB0451294330BD6FEA040403
:1003A0001F3C1CDA0C340EDC04F11404C4F12002EE
:1003B00020FA04F001FA02F340EA030021FA04F300
:1003C00045EA030130BDC4F10C04C4F1200220FA57
:1003D00002F001FA04F340EA0300294630BD21FA95
:1003E00004F0294630BD94F0000F83F4801306BF5B
:1003F00081F480110134013D4EE77FEA645C18BF4F
:100400007FEA655C29D094EA050F08BF90EA020FE5
:1004100005D054EA000C04BF1946104630BD91EADD
:10042000030F1EBF0021002030BD5FEA545C05D1E0
:100430004000494128BF41F0004130BD14F580041F
:100440003CBF01F5801130BD01F0004545F0FE4193
:1004500041F470014FF0000030BD7FEA645C1ABFC8
:10046000194610467FEA655C1CBF0B46024650EAFF
:10047000013406BF52EA033591EA030F41F400212B
:1004800030BD00BF90F0000F04BF0021704730B5B1
:100490004FF4806404F132044FF000054FF0000186
:1004A00050E700BF90F0000F04BF0021704730B547
:1004B0004FF4806404F1320410F0004548BF40421C
:1004C0004FF000013EE700BF42004FEAE2014FEA71
:1004D00031014FEA02701FBF12F07F4393F07F4F4C
:1004E00081F06051704732F07F4208BF704793F04F
:1004F0007F4F04BF41F40021704730B54FF4607462
:1005000001F0004521F000411CE700BF50EA010264
:1005100008BF704730B54FF000050AE050EA01020D
:1005200008BF704730B511F0004502D5404261EB7D
:1005300041014FF4806404F132045FEA915C3FF4BE
:10054000D8AE4FF003025FEADC0C18BF03325FEA5B
:10055000DC0C18BF033202EBDC02C2F1200300FA0C
:1005600003FC20FA02F001FA03FE40EA0E0021FA31
:1005700002F11444BDE600BF4FF0FF3C06E000BFAF
:100580004FF0010C02E000BF4FF0010C4DF804CD1C
:100590004FEA410C7FEA6C5C4FEA430C18BF7FEADC
:1005A0006C5C1BD001B050EA410C0CBF52EA430C0A
:1005B00091EA030F02BF90EA020F0020704710F18A
:1005C000000F91EA030F58BF994208BF90422CBF19
:1005D000D8176FEAE37040F0010070474FEA410C12
:1005E0007FEA6C5C02D150EA013C07D14FEA430C30
:1005F0007FEA6C5CD6D152EA033CD3D05DF8040BA1
:10060000704700BF8446104662468C4619466346D2
:1006100000E000BF01B5FFF7B7FF002848BF10F1A9
:10062000000F01BD4DF808EDFFF7F4FF0CBF0120EE
:1006300000205DF808FB00BF4DF808EDFFF7EAFF6A
:1006400034BF012000205DF808FB00BF4DF808ED25
:10065000FFF7E0FF94BF012000205DF808FB00BF1A
:100660004DF808EDFFF7CEFF94BF012000205DF8A4
:1006700008FB00BF4DF808EDFFF7C4FF34BF0120B1
:1006800000205DF808FB00BF4FEA4102B2F1E043F1
:1006900024BFB3F5001CDCF1FE5C0DD901F0004C69
:1006A0004FEAC0024CEA5070B2F1004F40EB8300B9
:1006B00008BF20F00100704711F0804F21D113F1E5
:1006C0003872BCBF01F00040704741F480114FEA1E
:1006D0005252C2F11802C2F1200C10FA0CF320FAA7
:1006E00002F018BF40F001004FEAC1234FEAD323C4
:1006F00003FA0CFC40EA0C0023FA02F34FEA43032E
:10070000CCE77FEA625307D150EA01331EBF4FF0B6
:10071000FE4040F44000704701F0004040F0FE40D1
:1007200040F40000704700BF53B94AB9002908BF20
:1007300000281CBF4FF0FF314FF0FF3000F074B9BC
:10074000ADF1080C6DE904CE00F006F8DDF804E028
:10075000DDE9022304B070472DE9F047089D044607
:100760008E46002B4DD18A42944669D9B2FA82F264
:1007700052B101FA02F3C2F1200120FA01F10CFAA0
:1007800002FC41EA030E94404FEA1C48210CBEFBD8
:10079000F8F61FFA8CF708FB16E341EA034306FB61
:1007A00007F199420AD91CEB030306F1FF3080F0F0
:1007B0001F81994240F21C81023E63445B1AA4B23D
:1007C000B3FBF8F008FB103344EA034400FB07F7DF
:1007D000A7420AD91CEB040400F1FF3380F00A8120
:1007E000A74240F207816444023840EA0640E41B15
:1007F00000261DB1D4400023C5E900433146BDE8C1
:10080000F0878B4209D9002D00F0EF800026C5E962
:10081000000130463146BDE8F087B3FA83F6002E7A
:100820004AD18B4202D3824200F2F980841A61EBF2
:10083000030301209E46002DE0D0C5E9004EDDE710
:1008400002B9FFDEB2FA82F2002A40F09280A1EBF8
:100850000C014FEA1C471FFA8CFE0126200CB1FB4D
:10086000F7F307FB131140EA01410EFB03F0884246
:1008700008D91CEB010103F1FF3802D2884200F2D3
:10088000CB804346091AA4B2B1FBF7F007FB101165
:1008900044EA01440EFB00FEA64508D91CEB040403
:1008A00000F1FF3102D2A64500F2BB800846A4EB5E
:1008B0000E0440EA03409CE7C6F12007B34022FA49
:1008C00007FC4CEA030C20FA07F401FA06F31C4378
:1008D000F9404FEA1C4900FA06F3B1FBF9F8200C85
:1008E0001FFA8CFE09FB181140EA014108FB0EF0CB
:1008F000884202FA06F20BD91CEB010108F1FF3A1B
:1009000080F08880884240F28580A8F10208614426
:10091000091AA4B2B1FBF9F009FB101144EA014134
:1009200000FB0EFE8E4508D91CEB010100F1FF34DF
:100930006CD28E456AD90238614440EA0840A0FB77
:100940000294A1EB0E01A142C846A64656D353D04D
:100950005DB1B3EB080261EB0E0101FA07F722FA71
:1009600006F3F1401F43C5E9007100263146BDE89A
:10097000F087C2F12003D8400CFA02FC21FA03F3FD
:10098000914001434FEA1C471FFA8CFEB3FBF7F07E
:1009900007FB10360B0C43EA064300FB0EF69E42A3
:1009A00004FA02F408D91CEB030300F1FF382FD23C
:1009B0009E422DD9023863449B1B89B2B3FBF7F6E4
:1009C00007FB163341EA034106FB0EF38B4208D9BD
:1009D0001CEB010106F1FF3816D28B4214D9023EFE
:1009E0006144C91A46EA004638E72E46284605E71C
:1009F0000646E3E61846F8E64B45A9D2B9EB0208ED
:100A000064EB0C0E0138A3E74646EAE7204694E77C
:100A10004046D1E7D0467BE7023B614432E73046AF
:100A200009E76444023842E7704700BF844641EA60
:100A3000000313F003036DD1403A41D351F8043B56
:100A400040F8043B51F8043B40F8043B51F8043BA8
:100A500040F8043B51F8043B40F8043B51F8043B98
:100A600040F8043B51F8043B40F8043B51F8043B88
:100A700040F8043B51F8043B40F8043B51F8043B78
:100A800040F8043B51F8043B40F8043B51F8043B68
:100A900040F8043B51F8043B40F8043B51F8043B58
:100AA00040F8043B51F8043B40F8043B51F8043B48
:100AB00040F8043B51F8043B40F8043B403ABDD2B7
:100AC000303211D351F8043B40F8043B51F8043B59
:100AD00040F8043B51F8043B40F8043B51F8043B18
:100AE00040F8043B103AEDD20C3205D351F8043BE8
:100AF00040F8043B043AF9D2043208D0D2071CBFB4
:100B000011F8013B00F8013B01D30B8803806046DC
:100B1000704700BF082A13D38B078DD010F0030352
:100B20008AD0C3F10403D21ADB071CBF11F8013BC2
:100B300000F8013B80D331F8023B20F8023B7BE711
:100B4000043AD9D3013A11F8013B00F8013BF9D23C
:100B50000B7803704B7843708B78837060467047D6
:100B60000000000000000000000000000000000085
:100B70000000000000000000000000000000000075
:100B800090F800F06DE9024520F007016FF0000CCD
:100B900010F0070491F820F040F049804FF0000475
:100BA0006FF00700D1E9002391F840F000F1080050
:100BB00082FA4CF2A4FA8CF283FA4CF3A2FA8CF388
:100BC0004BBBD1E9022382FA4CF200F10800A4FAEF
:100BD0008CF283FA4CF3A2FA8CF3E3B9D1E9042343
:100BE00082FA4CF200F10800A4FA8CF283FA4CF37A
:100BF000A2FA8CF37BB9D1E9062301F1200182FA34
:100C00004CF200F10800A4FA8CF283FA4CF3A2FA39
:100C10008CF3002BC6D0002A04BF04301A4612BA47
:100C2000B2FA82F2FDE8024500EBD2007047D1E94A
:100C3000002304F00305C4F100004FEAC50514F0D9
:100C4000040F91F840F00CFA05F562EA05021CBFAA
:100C500063EA050362464FF00004A9E770B54FF060
:100C6000FF0C4CF4E06C1CEA11541DBF1CEA135538
:100C700094EA0C0F95EA0C0F00F0DEF82C4481EAA0
:100C8000030621EA4C5123EA4C5350EA013518BFC0
:100C900052EA033541F4801143F4801338D0A0FBAD
:100CA00002CE4FF00005E1FB02E506F00042E0FB5A
:100CB00003E54FF00006E1FB03569CF0000F18BF60
:100CC0004EF0010EA4F1FF04B6F5007F64F5407408
:100CD00004D25FEA4E0E6D4146EB060642EAC6219B
:100CE00041EA55514FEAC52040EA5E504FEACE2E08
:100CF000B4F1FD0C88BFBCF5E06F1ED8BEF1004F0B
:100D000008BF5FEA500E50F1000041EB045170BD86
:100D100006F0004646EA010140EA020081EA0301CA
:100D2000B4EB5C04C2BFD4EB0C0541EA045170BDC6
:100D300041F480114FF0000E013C00F3AB8014F140
:100D4000360FDEBF002001F0004170BDC4F1000489
:100D5000203C35DA0C341BDC04F11404C4F120050A
:100D600000FA05F320FA04F001FA05F240EA020065
:100D700001F0004221F0004110EBD37021FA04F69B
:100D800042EB06015EEA430E08BF20EAD37070BD55
:100D9000C4F10C04C4F1200500FA04F320FA05F0B4
:100DA00001FA04F240EA020001F0004110EBD370B6
:100DB00041F100015EEA430E08BF20EAD37070BD26
:100DC000C4F1200500FA05F24EEA020E20FA04F3FF
:100DD00001FA05F243EA020321FA04F001F00041AE
:100DE00021FA04F220EA020000EBD3705EEA430E1F
:100DF00008BF20EAD37070BD94F0000F0FD101F04E
:100E00000046400041EB010111F4801F08BF013C86
:100E1000F7D041EA060195F0000F18BF704703F0C4
:100E20000046520043EB030313F4801F08BF013D4B
:100E3000F7D043EA0603704794EA0C0F0CEA135507
:100E400018BF95EA0C0F0CD050EA410618BF52EAC1
:100E50004306D1D181EA030101F000414FF00000C7
:100E600070BD50EA410606BF1046194652EA4306D5
:100E700019D094EA0C0F02D150EA013613D195EA49
:100E80000C0F05D152EA03361CBF104619460AD191
:100E900081EA030101F0004141F0FE4141F470019B
:100EA0004FF0000070BD41F0FE4141F4780170BD8B
:100EB00070B54FF0FF0C4CF4E06C1CEA11541DBFF0
:100EC0001CEA135594EA0C0F95EA0C0F00F0A7F8F2
:100ED000A4EB050481EA030E52EA03354FEA01311F
:100EE00000F088804FEA03334FF0805545EA131332
:100EF00043EA12634FEA022245EA111545EA1065FA
:100F00004FEA00260EF000419D4208BF964244F190
:100F1000FD0404F5407402D25B084FEA3202B61AAF
:100F200065EB03055B084FEA32024FF480104FF483
:100F3000002CB6EB020E75EB030E22BFB61A7546F7
:100F400040EA0C005B084FEA3202B6EB020E75EB8A
:100F5000030E22BFB61A754640EA5C005B084FEAF2
:100F60003202B6EB020E75EB030E22BFB61A7546BF
:100F700040EA9C005B084FEA3202B6EB020E75EBCA
:100F8000030E22BFB61A754640EADC0055EA060E8B
:100F900018D04FEA051545EA16754FEA06164FEACE
:100FA000C30343EA52734FEAC2025FEA1C1CC0D17A
:100FB00011F4801F0BD141EA00014FF000004FF007
:100FC000004CB6E711F4801F04BF01430020B4F1C8
:100FD000FD0C88BFBCF5E06F3FF6AFAEB5EB030C80
:100FE00004BFB6EB020C5FEA500C50F1000041EB7D
:100FF000045170BD0EF0004E4EEA113114EB5C044A
:10100000C2BFD4EB0C0541EA045170BD41F480111C
:101010004FF0000E013C90E645EA060E8DE60CEA24
:10102000135594EA0C0F08BF95EA0C0F3FF43BAF41
:1010300094EA0C0F0AD150EA01347FF434AF95EAF8
:101040000C0F7FF425AF104619462CE795EA0C0FDC
:1010500006D152EA03353FF4FDAE1046194622E7A9
:1010600050EA410618BF52EA43067FF4C5AE50EA83
:1010700041047FF40DAF52EA43057FF4EBAE12E773
:101080004FEA410C7FEA6C5C02D150EA013C0AD184
:101090004FEA430C7FEA6C5C02D152EA033C02D176
:1010A0004FF0000070474FF00100704700B585B069
:1010B000002300930193029303931548154A02609D
:1010C0004FF40032426083600361037680F8203081
:1010D000C362114A8262C3600122C26180F830306B
:1010E000426101F05FFB68B9102300930123019373
:1010F000002302936946064801F082FC28B905B036
:101100005DF804FB00F042FBEEE700F03FFBF6E782
:1011100088070020002001400100000F0268094BF1
:101120009A4200D0704782B000230193064B5A6C5C
:1011300042F480725A645B6C03F480730193019BE8
:1011400002B07047002001400038024008B50E4848
:101150000E4B03600323436000238360C3604FF49E
:10116000102202614FF4001242610376012242769E
:101170008376C2760377437701F00EFD00B908BD90
:1011800000F004FBFBE700BFD40700200064004030
:1011900008B50E480E4B03600323436000238360B1
:1011A000C3604FF4102202614FF4001242610376D3
:1011B000012242768376C2760377437701F0ECFC16
:1011C00000B908BD00F0E2FAFBE700BFFC07002011
:1011D0000068004010B58AB000230593069307937A
:1011E0000893099303683F4A934204D03E4A9342CE
:1011F00036D00AB010BD3D4A136801331360012B8D
:1012000021D0002401943A4B1A6B42F008021A6371
:101210001B6B03F008030193019B03230593022238
:1012200006920122079208930923099305A93148E0
:1012300002F09AFC22460521142002F095F81420B1
:1012400002F0CAF8D5E700230093294B1A6C42F04C
:1012500000721A641B6C03F000730093009BD0E7CC
:1012600000230293224B1A6C42F080621A641B6CBA
:1012700003F080630293029B1C4A136801331360DE
:10128000012B22D000240494194B1A6B42F0020265
:101290001A631B6B03F002030493049B6023059302
:1012A0000223069301230793032308930923099339
:1012B00005A9114802F058FC22460521402002F001
:1012C00053F8402002F088F893E700230393084B7B
:1012D0001A6C42F000721A641B6C03F000730393E3
:1012E000039BCFE70064004000680040D007002067
:1012F00000380240000C02400004024008B50548D6
:10130000054B036002F08AF800B908BD00F03EFA10
:10131000FBE700BF24080020003002400268094BB0
:101320009A4200D0704782B000230193064B1A6B9B
:1013300042F480521A631B6B03F480530193019BA8
:1013400002B07047003002400038024010B582B051
:10135000002400941E4B1A6B42F480021A631A6B2D
:1013600002F480020092009A01941A6B42F4001277
:101370001A631B6B03F400130193019B22460521A2
:101380000C2001F0F1FF0C2002F026F82246052186
:10139000392001F0E9FF392002F01EF8224605212C
:1013A0003A2001F0E1FF3A2002F016F8224605212A
:1013B0003B2001F0D9FF3B2002F00EF82246052128
:1013C000452001F0D1FF452002F006F802B010BD23
:1013D0000038024008B508F067F8012006F024FC48
:1013E000FBE70000034B0360034B0B60802313609B
:1013F000704700BF580A00205808002010B5C6B03A
:101400005C4C0DF1FC0CA646BEE80F00ACE80F00EA
:101410009EE807008CE8070000213FA806F0CFFBFC
:10142000554B18600DF1E00C04F11C0EBEE80F00E6
:10143000ACE80F009EE807008CE80700002138A800
:1014400006F0BDFB4D4B18600DF1C40C04F1380ED5
:10145000BEE80F00ACE80F009EE807008CE807002C
:10146000002131A806F0ABFB454B18600DF1A80C2C
:1014700004F1540EBEE80F00ACE80F009EE8070030
:101480008CE8070000212AA806F099FB3D4B186064
:101490000DF18C0C04F1700EBEE80F00ACE80F00EB
:1014A0009EE807008CE80700002123A806F087FBD0
:1014B000354B18600DF1700C04F18C0EBEE80F0076
:1014C000ACE80F009EE807008CE8070000211CA88C
:1014D00006F075FB2D4B18600DF1540C04F1A80EAD
:1014E000BEE80F00ACE80F009EE807008CE807009C
:1014F000002115A806F063FB254B18600DF1380C90
:1015000004F1C40EBEE80F00ACE80F009EE807002F
:101510008CE8070000210EA806F051FB1D4B186057
:101520000DF11C0C04F1E00EBEE80F00ACE80F005A
:101530009EE807008CE80700002107A806F03FFBA3
:10154000154B1860EC46FC340FCCACE80F0094E867
:1015500007008CE807000021684606F030FB0F4BBF
:10156000186000228021012006F078FF0C4B1860E3
:1015700046B010BD1C30010844080020300800208F
:10158000340800204C0800205008002048080020A3
:101590003C080020380800205408002040080020A3
:1015A0002C0800202DE9F0438FB0002409940A9400
:1015B0000B940C940D9400946E4B1A6B42F0020243
:1015C0001A631A6B02F002020092009A01941A6BDD
:1015D00042F040021A631A6B02F040020192019A33
:1015E00002941A6B42F001021A631A6B02F00102B4
:1015F0000292029A03941A6B42F008021A631A6B61
:1016000002F008020392039A04941A6B42F0040257
:101610001A631A6B02F004020492049A05941A6B7E
:1016200042F480721A631A6B02F480720592059A72
:1016300006941A6B42F080021A631A6B02F0800261
:101640000692069A07941A6B42F020021A631A6BEC
:1016500002F020020792079A08941A6B42F01002D7
:101660001A631B6B03F010030893089BDFF81881C3
:1016700001221021404602F069FB3F4E012241F257
:101680000101304602F062FB012509950A940B9591
:1016900009A9404602F068FA102309930A950B95B0
:1016A00002270C9709A9404602F05EFA30230993FD
:1016B0004FF40419CDF828900B9508F5006809A996
:1016C000404602F051FA0995CDF828900B9509A9EA
:1016D0002A4802F049FA4FF4805309930A950B9572
:1016E0000C9509A9304602F03FFA09950A950B9529
:1016F0000C9709A9304602F037FA4FF4404309939A
:101700000A940B9709A9304602F02EFA4FF40063B1
:1017100009930A950B9509A9194802F025FA402664
:1017200009960A950B9509A9404602F01DFA0996FB
:101730000A950B9509A9134802F016FA22460521CD
:10174000062001F011FE062001F046FE224605218A
:101750000A2001F009FE0A2001F03EFE2246052182
:10176000172001F001FE172001F036FE0FB0BDE892
:10177000F08300BF0038024000040240001802401D
:1017800000100240002002400000024072B6FEE756
:1017900000B595B03022002108A810F059F90023B7
:1017A000039304930593069307930193204A116CC6
:1017B00041F080511164126C02F080520192019A42
:1017C00002931C4B1A6842F480421A601B6803F4AF
:1017D00080430293029B012308934FF480330993C3
:1017E00002230E934FF480020F9206221092A82239
:1017F000119212930723139308A803F025F998B9BF
:101800000F23039302230493002305934FF4A05363
:1018100006934FF480530793052103A803F062FB5E
:1018200020B915B05DF804FBFFF7B0FFFFF7AEFF7E
:10183000003802400070004008B500F0D9FEFFF704
:10184000A7FFFFF7AFFEFFF781FDFFF77FFCFFF774
:101850009FFC00F06DF800F005FC00F05BFC00F070
:1018600067FD00F083FD00F0BDFB00F027FDFFF7F2
:101870001DFCFFF743FD00F033F800F023FB00F000
:10188000B3FC0CF067FB0CF089F90CF0B5F9114CC6
:101890000821204604F02EF90421204604F02AF9FC
:1018A0000D4C204603F0EAFE0821204604F022F900
:1018B0000C21204604F01EF9C82108480EF03AFB1E
:1018C00009F0A8F90CF084F8FFF798FD06F072F91A
:1018D000FEE700BF3C0D0020D40B00201496002032
:1018E00008B50548054B036003F0D2FB00B908BDFD
:1018F000FFF74CFFFBE700BFAC0A002000080650D2
:101900000268094B9A4200D0704782B000230193CD
:10191000064B5A6B42F040025A635B6B03F0400384
:101920000193019B02B07047000806500038024046
:1019300008B50F480F4B03604FF4827343600023D8
:101940008360C36002220261012242614FF400728F
:1019500082613822C2610362436283620A23C362E6
:1019600003F04CFC00B908BDFFF710FFFBE700BF18
:101970007C0B0020003001402DE9F04389B00023AA
:101980000393049305930693079302683F4B9A428F
:1019900002D009B0BDE8F08304460025009503F5A8
:1019A00084335A6C42F480525A645A6C02F4805266
:1019B0000092009A01951A6B42F002021A631A6BA8
:1019C00002F002020192019A02951A6B42F00102A2
:1019D0001A631B6B03F001030293029B182303930A
:1019E0004FF00209CDF810904FF00108CDF81480A7
:1019F000032706970526079603A9254802F0B4F8A1
:101A000080230393CDF81090CDF8148006970796A5
:101A100003A9204802F0A8F81F48204B03604FF0AC
:101A2000C06343608560C5604FF4806303614561B6
:101A30008561C5614FF440330362456201F068FD82
:101A4000E8B9154BE3649C631548164B03604FF0EF
:101A5000C0634360402383600023C3604FF480620F
:101A6000026143618361C3614FF4003202624362E9
:101A700001F04EFD30B90A4BA3649C6389E7FFF780
:101A800085FEDEE7FFF782FEF5E700BF003001408C
:101A90000004024000000240BC0A002040640240F2
:101AA0001C0B00205864024000B583B00022009255
:101AB0000D4B596C41F480415964596C01F48041DB
:101AC000009100990192196C41F0805119641B6CCE
:101AD00003F080530193019B0F216FF0010001F08F
:101AE00043FC03B05DF804FB00380240FEE7FEE76C
:101AF000FEE7FEE7FEE7704708B500F093FD07F04C
:101B0000C5FB012800D108BD06F0B4F9FBE708B514
:101B1000012002F021F908BD08B5102002F01CF9DF
:101B200008BD000008B5024801F058FD08BD00BF1F
:101B3000840D002008B5024801F0DFFA08BD00BF9F
:101B4000D407002008B5202002F006F908BD0000E7
:101B500008B5024801F042FD08BD00BFE40D0020B9
:101B600008B5024801F03AFD08BD00BF1C0B00207B
:101B700008B5024801F0C1FA08BD00BFFC0700200B
:101B800008B5024802F052FC08BD00BF8085002065
:101B900008B5024801F022FD08BD00BF440E002038
:101BA000034AD2F8883043F47003C2F88830704793
:101BB00000ED00E084B00368184A934207D0184A49
:101BC000934211D0174A93421BD004B070470023B0
:101BD0000193154B5A6C42F001025A645B6C03F09E
:101BE00001030193019BF0E7002302930E4B1A6C53
:101BF00042F002021A641B6C03F002030293029B80
:101C0000E3E700230393084B5A6C42F002025A6444
:101C10005B6C03F002030393039BD6E700000140D3
:101C200000040040000401400038024084B0036812
:101C3000184A934207D0184A934211D0174A934248
:101C40001BD004B0704700230193154B1A6C42F06F
:101C500004021A641B6C03F004030193019BF0E778
:101C6000002302930E4B1A6C42F008021A641B6C9C
:101C700003F008030293029BE3E700230393084B5E
:101C80005A6C42F400325A645B6C03F400330393E1
:101C9000039BD6E700080040000C004000440140D0
:101CA0000038024070B58CB0002307930893099365
:101CB0000A930B930368724A934212D0714A93427B
:101CC00033D0714A934252D0704A934272D0704AD4
:101CD000934200F099806F4A934200F0AF800CB0BD
:101CE00070BD002301936C4B1A6B42F010021A6313
:101CF0001B6B03F010030193019B4FF4C043079348
:101D00000225089501240B94644E07A9304601F082
:101D10002BFF4FF400730793089509940A950B94D1
:101D200007A9304601F020FFD9E7002302935A4B60
:101D30001A6B42F004021A631B6B03F00403029354
:101D4000029B4FF4807307930223089301220992A8
:101D50000A930B9307A9524801F006FF514C204605
:101D600003F08CFC0821204603F0C4FEB7E70023F3
:101D70000393494B1A6B42F008021A631B6B03F082
:101D800008030393039B4FF48043079302230893B4
:101D90000122099203220A920B9307A9424801F0FB
:101DA000E3FE424C204603F069FC0821204603F084
:101DB000A1FE94E700250495374B1A6B42F0800290
:101DC0001A631B6B03F080030493049B4FF4E053EE
:101DD000079302230893012209920A930B9307A900
:101DE000334801F0C1FE334C204603F047FC29463E
:101DF000204603F07FFE0421204603F07BFE0821ED
:101E0000204603F077FE6AE700230593224B1A6B06
:101E100042F480721A631B6B03F480730593059B75
:101E200080230793022308930123099303230A9332
:101E30000B9307A9204801F097FE50E7002506956F
:101E4000154B1A6B42F020021A631B6B03F0200340
:101E50000693069B402307930223089301220992CD
:101E60000A9303230B9307A9144801F07DFE144C39
:101E7000204603F003FC2946204603F03BFE2EE7F4
:101E8000000001400004004000080040000C004039
:101E900000040140004401400038024000100240AC
:101EA00000080240640C0020000C0240AC0C002032
:101EB000001C0240F40C00200020024000140240EC
:101EC0001C0C002010B592B00024109411940994B9
:101ED0000A940B940C940D940E940F942022214696
:101EE00001A80FF0B5FD3D483D4B0360A7234360BB
:101EF000846044F61F63C36004614461846103F03D
:101F00008BFC00284FD100231093119310A9334864
:101F100003F072FE002849D1602309934FF47A73CD
:101F20000A9300220B920C920D920E920F9209A925
:101F30002A4803F0D5FC00283BD100230A93042251
:101F400009A9264803F0CCFC002835D1082209A9AC
:101F5000224803F0C5FC002831D10C2209A91F48F2
:101F600003F0BEFC70BB082209A91C4803F0B8FCB2
:101F700058BB0C2209A9194803F0B2FC40BB00234E
:101F8000019302930393049305934FF40052069236
:101F9000089301A9114803F075FEE0B90F48FFF757
:101FA00081FE12B010BDFFF7F1FBACE7FFF7EEFBCF
:101FB000B2E7FFF7EBFBC0E7FFF7E8FBC6E7FFF789
:101FC000E5FBCAE7FFF7E2FBCDE7FFF7DFFBD0E772
:101FD000FFF7DCFBD3E7FFF7D9FBDFE7D40B0020EB
:101FE0000000014000B58BB00023089309930193D2
:101FF0000293039304930593069307931748184A93
:1020000002604360836042F2CF02C2600361836179
:1020100003F002FCC8B900230893099308A90F48EC
:1020200003F0EAFDA0B96023019300230293039318
:102030000593082201A9094803F052FC58B9074842
:10204000FFF730FE0BB05DF804FBFFF79FFBE2E704
:10205000FFF79CFBE7E7FFF799FBF0E7640C002034
:102060000004004000B58FB000230A930B930C933B
:102070000D9308930993019302930393049305939B
:10208000069307932148224A0260A7224260836098
:102090004FF6FF72C2600361836103F091FB28BBBE
:1020A0004FF480530A930AA9184803F094FC00BB2C
:1020B000164803F0B1FBF8B900230893099308A967
:1020C000124803F099FDD0B96023019300230293D5
:1020D00003930593082201A90C4803F001FC88B979
:1020E0000A48FFF7DFFD0FB05DF804FBFFF74EFB7A
:1020F000D6E7FFF74BFBDBE7FFF748FBDCE7FFF733
:1021000045FBE1E7FFF742FBEAE700BFAC0C00202C
:102110000008004000B58FB000230A930B930C9386
:102120000D930893099301930293039304930593EA
:10213000069307932A482B4A0260436083604FF658
:10214000FF72C2600361836103F03AFB002831D162
:102150004FF480530A930AA9214803F03CFC60BB6A
:102160001F4803F059FB58BB00230893099308A9A3
:102170001B4803F041FD30BB602301930022029213
:102180000392059201A9164803F0AAFBF0B90422B4
:102190000DEB0201124803F0A3FBD0B9082201A9FC
:1021A0000F4803F09DFBB8B90D48FFF77BFD0FB05A
:1021B0005DF804FBFFF7EAFACAE7FFF7E7FACFE7B3
:1021C000FFF7E4FAD0E7FFF7E1FAD5E7FFF7DEFA29
:1021D000DDE7FFF7DBFAE1E7FFF7D8FAE4E700BF56
:1021E000F40C0020000C004010B592B000241094B4
:1021F000119409940A940B940C940D940E940F94DA
:102200002022214601A80FF023FC2A482A4B036014
:10221000A7234360846040F69C73C36004614461FB
:102220008023836103F0F8FA002833D10023109350
:10223000119310A91F4803F0DFFC00282DD1602363
:10224000099340F2DC530A9300230B930C930D93F4
:102250000E930F93042209A9164803F041FBF8B925
:10226000082209A9134803F03BFBE0B900230193BE
:1022700002930393049305934FF40052069208933C
:1022800001A90C4803F0FEFC80B90A48FFF70AFDDB
:1022900012B010BDFFF77AFAC8E7FFF777FACEE77A
:1022A000FFF774FADCE7FFF771FADFE7FFF76EFA82
:1022B000EBE700BF3C0D00200004014000B589B0F1
:1022C00000230193029303930493059306930793CA
:1022D0001548164A02604360836041F28732C2604B
:1022E0000361836103F06CFAA0B90F4803F094FA1C
:1022F00098B960230193002202920392059201A9EA
:10230000094803F0EDFA58B90748FFF7CBFC09B0CC
:102310005DF804FBFFF73AFAE7E7FFF737FAE8E77B
:10232000FFF734FAF0E700BF1C0C00200044014026
:1023300008B50B480B4B03600B4B436000238360D5
:10234000C3604FF480620261042242618361C36111
:1023500003F04AFD00B908BDFFF718FAFBE700BF1C
:10236000A40E002000480040A086010008B50A48DD
:102370000A4B03604FF4E133436000238360C36082
:1023800003610C2242618361C36103F02DFD00B93A
:1023900008BDFFF7FBF9FBE7E80E00200014014041
:1023A00070B58AB0044600230593069307930893FB
:1023B000099303685B4A934204D05B4A934248D036
:1023C0000AB070BD00250195584B1A6C42F480226A
:1023D0001A641A6C02F480220192019A02951A6B17
:1023E00042F004021A631B6B03F004030293029B86
:1023F0004FF44063059302230693032308930723B6
:10240000099305A94A4801F0AFFB4A484A4B0360CB
:102410004FF0006343608560C5604FF480630361E3
:1024200045618561C5614FF400330362456201F087
:102430006FF858B93F4BA3639C6300220521272006
:1024400000F092FF272000F0C7FFB9E7FFF79EF9E1
:10245000F0E700250395354B5A6C42F020025A6490
:102460005A6C02F020020392039A04951A6B42F010
:1024700040021A631B6B03F040030493049B4FF468
:1024800084430593022306930326089608230993A1
:1024900005A92A4801F068FB29482A4B03604FF040
:1024A000206343608560C5604FF4806303614561CC
:1024B0008561C5614FF40033036204234362866281
:1024C000C562056301F024F828BB1D4BA3639C6320
:1024D0001D481E4B03604FF0206343604023836020
:1024E0000023C3604FF48062026143618361C36172
:1024F0004FF480320262436201F00AF870B9124B65
:1025000063639C6300220521472000F02DFF4720D4
:1025100000F062FF54E7FFF739F9D6E7FFF736F925
:10252000EDE700BF004800400014014000380240C1
:1025300000080240840D002028600240001802407C
:10254000E40D002028640240440E0020A0640240F4
:10255000DFF834D00D480E490E4A002302E0D4586B
:10256000C4500433C4188C42F9D30B4A0B4C0023DB
:1025700001E013600432A242FBD3FFF711FB0FF01E
:1025800043FAFFF759F970470000022000000020CD
:102590006C070020A83901086C070020949F0020D8
:1025A000FEE7000010B504460E4B18784FF47A731E
:1025B000B3FBF0F30C4A1068B0FBF3F000F01AFF25
:1025C00068B90F2C01D901200AE0002221464FF002
:1025D000FF3000F0C9FE054B1C60002000E0012028
:1025E00010BD00BF040000200000002008000020F3
:1025F00008B50B4B1A6842F400721A601A6842F46C
:1026000080621A601A6842F480721A60032000F037
:1026100099FE0F20FFF7C6FFFFF746FA002008BD1E
:10262000003C0240034A1168034B1B780B441360C3
:10263000704700BF2C0F002004000020014B1868D9
:10264000704700BF2C0F002038B50446FFF7F6FF97
:102650000546B4F1FF3F02D0044B1B781C44FFF742
:10266000EDFF401BA042FAD338BD00BF040000209C
:102670004A4B5A6822F440325A605A6841680A4309
:102680005A600268536823F4807353600268536889
:10269000016943EA012353600268536823F04073E1
:1026A00053600268536881680B4353600268936803
:1026B00023F40063936002689368C1680B439360DE
:1026C000826A374B9A4257D00268936823F070634E
:1026D000936002689368816A0B4393600268936811
:1026E00023F04053936002689368C16A0B43936080
:1026F0000268936823F00203936002689368017E86
:1027000043EA4103936090F82030002B3FD00268E9
:10271000536843F4006353600268536823F46043D2
:10272000536001684B68426A013A43EA42334B60A6
:102730000268D36A23F47003D3620168CB6AC2696A
:10274000013A43EA0253CB620268936823F40073B0
:1027500093600268936890F8301043EA41239360D5
:102760000268936823F48063936002689368416908
:1027700043EA8123936070470268936823F0706393
:1027800093600268936823F040539360B0E7026857
:10279000536823F400635360CAE700BF002301407D
:1027A0000100000F38B310B50446036C43B1236C2D
:1027B00013F0100F0BD00120002384F83C3010BD23
:1027C000FEF7ACFC0023636484F83C30EFE7236C35
:1027D00023F4885323F0020343F0020323642046CA
:1027E000FFF746FF00206064236C23F0030343F0EF
:1027F00001032364E0E701207047000082B000235A
:10280000019390F83C30012B00F08980012380F87F
:102810003C3003689A6812F0010F13D19A6842F0B5
:1028200001029A60414B1B68414AA2FB03239B0CA7
:1028300003EB4303019302E0019B013B0193019BE6
:10284000002BF9D10268936813F0010F5CD0036C80
:1028500023F4E06323F0010343F4807303645368BB
:1028600013F4806F05D0036C23F4405343F480537A
:102870000364036C13F4805F1BD0436C23F00603E6
:102880004364002380F83C306FF022031360294B2F
:102890005B6813F01F0F27D10368274A934211D0BA
:1028A00002F58072934207D0244A934214D000204C
:1028B00033E000234364E4E702F50072526812F04B
:1028C0001F0FF1D19A6812F0405F2AD19A6842F046
:1028D00080429A60002020E002F58072526812F077
:1028E000100FEFD0002018E00368134A934201D084
:1028F000002012E09A6812F0405F14D19A6842F00A
:1029000080429A60002008E0036C43F010030364E7
:10291000436C43F001034364002002B0704702207F
:10292000FBE70020F9E70020F7E700BF00000020E8
:1029300083DE1B43002301400020014000220140B0
:1029400070B504460D4603689A6812F4806F03D090
:102950009B6813F4807F19D1FFF770FE0646236849
:102960001A6812F0020F20D1B5F1FF3FF7D0B5B9C8
:1029700023681B6813F0020FF1D1236C43F00403AA
:102980002364002384F83C30032032E0036C43F0DE
:1029900020030364002380F83C30012029E0FFF786
:1029A0004DFE801BA842DAD9E2E76FF012021A60EE
:1029B000236C43F40073236423689A6812F0405F29
:1029C00016D1207EB0B9DA6A12F4700F03D09B687A
:1029D00013F4806F0DD1236C23F480732364236C74
:1029E00013F4805F05D1236C43F00103236400E0FE
:1029F000002070BD0020FCE70368D86C7047000021
:102A000030B482B00023019390F83C30012B00F0E9
:102A1000BB80012380F83C300B68092B41D9046846
:102A2000E2689BB203EB43031E3B4FF0070C0CFA2A
:102A300003F322EA0303E3600468E2680B8803EB14
:102A400043031E3B8D6805FA03F31343E3604B68B1
:102A5000062B3DD80468626B03EB8303053B4FF004
:102A60001F0C0CFA03F322EA030363630468626B2E
:102A70004B6803EB8303053BB1F800C00CFA03F38A
:102A8000134363630268414B9A4251D002683F4B43
:102A90009A4256D0002380F83C30184602B030BC31
:102AA0007047046822699BB203EB43034FF0070CA5
:102AB0000CFA03F322EA03032361046822690B88FA
:102AC00003EB43038D6805FA03F313432361BEE769
:102AD0000C2B16D805682A6B03EB8303233B1F24BA
:102AE00004FA03F322EA03032B6305682A6B4B689D
:102AF00003EB8303233B0C8804FA03F313432B6398
:102B0000C0E70568EA6A03EB8303413B1F2404FA2C
:102B100003F322EA0303EB620568EA6A4B6803EBFE
:102B20008303413B0C8804FA03F31343EB62A9E7E8
:102B30000B68122BAAD1164A536843F480035360E2
:102B4000A4E70B68103B012BA4D8114A536843F447
:102B5000000353600B68102B9CD10E4B1B6802F1D5
:102B6000467202F52E3202F28332A2FB03239B0C43
:102B700003EB83035B00019302E0019B013B0193A4
:102B8000019B002BF9D185E7022087E70020014057
:102B90000023014000000020002800F0A18038B58B
:102BA000044690F82030D3B12268136843F0010343
:102BB0001360FFF743FD054623685A6812F0010FC2
:102BC00010D1FFF73BFD401B0A28F5D9636A43F497
:102BD00000336362052384F82030012038BDFEF7FE
:102BE000F9FAE1E71A6822F002021A60FFF726FDFF
:102BF000054623685A6812F0020F0DD0FFF71EFD3C
:102C0000401B0A28F5D9636A43F400336362052345
:102C100084F820300120E1E7227E012A3DD01A68A5
:102C200022F080021A60637E012B3BD02268136879
:102C300023F040031360A37E012B39D02268136870
:102C400023F020031360E37E012B37D02268136842
:102C500043F010031360237F012B35D022681368E3
:102C600023F008031360637F012B33D022681368BD
:102C700023F004031360A368E2681343226913433B
:102C8000626913436268013A21681343CB610020F3
:102C90006062012384F82030A0E71A6842F08002C5
:102CA0001A60C0E72268136843F040031360C2E76C
:102CB0002268136843F020031360C4E72268136896
:102CC00023F010031360C6E72268136843F008037B
:102CD0001360C8E72268136843F004031360CAE76F
:102CE0000120704790F82030013BDBB2012B05D961
:102CF000436A43F4802343620120704730B5464B5A
:102D0000D3F8002242F00102C3F80022D3F80022D7
:102D100022F47C52C3F80022D3F80022486A42EA27
:102D20000022C3F800224A6902F01F02012000FAC3
:102D300002F2D3F81C026FEA020C20EA0200C3F888
:102D40001C02CB69C3B9344BD3F80C020CEA000067
:102D5000C3F80C028C884869CD6844EA05444830C1
:102D600043F830408C68088840EA04404C6904F11C
:102D7000480E03EBCE035860CB69012B1ED08B6944
:102D8000002B33D12448D0F804320CEA0303C0F8F6
:102D900004320B698BBB2048D0F814320CEA0303D1
:102DA000C0F814320B6A012B2ED01B4AD2F8003225
:102DB00023F00103C2F80032002030BD164BD3F8D7
:102DC0000C021043C3F80C028C8848690D6844EA71
:102DD0000544483043F8304088894C698D6840EAA2
:102DE0000540483403EBC4035860C8E70A48D0F8EC
:102DF00004321343C0F80432CBE70748D0F814324A
:102E00001343C0F81432CDE70349D1F81C321A43FA
:102E1000C1F81C22C9E700BF0064004070B5044639
:102E200090F82050EDB2012D06D0436A43F4002300
:102E300043620125284670BD022380F820300268D5
:102E4000136823F001031360FFF7F8FB06462368BD
:102E50005B6813F0010F0CD0FFF7F0FB831B0A2B0C
:102E6000F5D9636A43F400336362052384F82030A4
:102E7000E0E700256562DDE730B590F820C0046822
:102E8000A4680CF1FF3C5FFA8CFCBCF1010F6BD81D
:102E900014F0E05F62D0C4F3016CBCF1020F05D9FD
:102EA000436A43F400034362012062E0012404FA10
:102EB0000CF41C608B68002B3DD10D68CB68046856
:102EC00043EA45550CF118031B01E55003680C69F2
:102ED0000CF1180E03EB0E135C600B7D012B35D04B
:102EE000D17993791B0443EA0163517943EA0123C1
:102EF00014790168234301EB0C11C1F88C31D178AE
:102F000093781B0443EA0163517843EA0123117863
:102F100002680B4302EB0C12C2F8883102680CF114
:102F2000180C4FEA0C1C52F80C3043F0010342F825
:102F30000C3000201DE04C6843EAC403CC682343F6
:102F40000CF11804240105682B51BFE7036803EB5B
:102F50000E13596841F480715960C1E7436A43F424
:102F600000134362012004E0436A43F48023436278
:102F7000012030BD90F820C00CF1FF3C5FFA8CFCC2
:102F8000BCF1010F00F2958030B451B90468E468D7
:102F900014F0030F10D1436A43F40013436201207D
:102FA00077E00468246914F0030F05D1436A43F401
:102FB0000013436201206CE001F11B042401056849
:102FC0002C5904F004049460002C64D101F11B041A
:102FD000240105682C59640D1460046801F11B0C70
:102FE0004FEA0C1C54F80C4004F00204D46004684E
:102FF0006444646804F00F04146104686444646801
:10300000C4F307249461046864446468240C546124
:10301000026802EB0112D2F8B8211A70026802EBC2
:103020000112D2F8B821C2F307225A70026802EBEB
:103030000112D2F8B821C2F307429A70026802EB7B
:103040000112D2F8B821120EDA70026802EB0112F6
:10305000D2F8BC211A71026802EB0112D2F8BC212D
:10306000C2F307225A71026802EB0112D2F8BC21A6
:10307000C2F307429A71026802EB0112D2F8BC2136
:10308000120EDA7179B90268D36843F02003D36075
:10309000002030BC704701F11B04240105682C5945
:1030A000E408546099E70268136943F02003136150
:1030B000EEE7436A43F4802343620120704790F8AF
:1030C0002030013BDBB2012B05D9436A43F4802356
:1030D000436201207047026853691943516100201F
:1030E0007047704770477047704770477047704728
:1030F000704770477047704770472DE9F84F054695
:1031000003685C69D3F804809F68D3F80CB0D3F8E7
:1031100010A0D3F8189014F001063BD017F0010668
:1031200016D001229A6017F0020F08D117F0040F91
:103130000CD117F0080606D04FF4805608E0FFF7D0
:10314000D0FF002604E0FFF7CFFF01E04FF4006658
:1031500017F4807F0DD02B684FF480729A6017F4BB
:10316000007F40F0868017F4806F00F0868046F480
:10317000005617F4803F0DD02B684FF480329A60D0
:1031800017F4003F40F0838017F4802F00F0838015
:1031900046F4004614F0080F07D01BF0100F04D0BF
:1031A00046F400762B681022DA6014F0040F02D087
:1031B0001BF0080F79D114F0020F04D02B68DB68E4
:1031C00013F0030F78D114F0400F07D01AF0100F4E
:1031D00004D046F480662B6810221A6114F0200F88
:1031E00002D01AF0080F6BD114F0100F04D02B6826
:1031F0001B6913F0030F6AD114F4003F02D018F0DA
:10320000100F68D114F4803F02D018F0080F69D174
:1032100014F4004F7AD018F0040F74D014F4807FA7
:1032200004D019F0010F01D046F0010614F4007F1C
:1032300004D019F0020F01D046F0020614F4806F9A
:1032400004D019F0040F01D046F0040614F4006F06
:1032500059D019F0700956D0B9F1400F65D058D83F
:10326000B9F1200F5ED0B9F1300F42D146F02006FF
:1032700044E02846FFF736FF7BE717F4006F02D0E3
:1032800046F4804675E72846FFF72FFF71E728468A
:10329000FFF729FF7EE717F4002F02D046F48036AF
:1032A00078E72846FFF722FF74E72B680822DA60E8
:1032B0002846FFF71CFF7EE7284609F0ABFD82E7B2
:1032C0002B6808221A612846FFF713FF8CE728466F
:1032D000FFF70EFF90E72B6810225A602846FFF791
:1032E00009FF8FE72B6808225A602846FFF703FF83
:1032F0008EE7B9F1100F01D146F008062A689369EC
:1033000023F0700393612B6804225A609EB9BDE8D4
:10331000F88FB9F1500F0BD0B9F1600FEED146F430
:103320008076EBE746F01006E8E746F04006E5E772
:1033300046F08006E2E76B6A1E436E622846FFF79E
:10334000DBFEE4E7074AD36823F4E0631B041B0CAD
:10335000000200F4E060034343F0BF6343F4003332
:10336000D360704700ED00E000B5194BDB68C3F394
:103370000223C3F1070CBCF1040F28BF4FF0040C6B
:1033800003F1040EBEF1060F18D9033B4FF0FF3EC8
:103390000EFA0CFC21EA0C0199400EFA03F322EA22
:1033A0000303194300280BDB0901C9B200F1604097
:1033B00000F5614080F800135DF804FB0023E5E7A9
:1033C00000F00F000901C9B2024B1954F4E700BF25
:1033D00000ED00E014ED00E0002807DB00F01F0224
:1033E000400901239340024A42F82030704700BF51
:1033F00000E100E00138B0F1807F0BD24FF0E02314
:103400005861054AF02182F82310002098610722B4
:103410001A6170470120704700ED00E058B110B507
:10342000044643791BB101236371002010BD037171
:10343000FDF774FFF7E701207047000010B4036840
:10344000D9B210390C4AA2FB014212090B4CA25C02
:10345000C2655F2909D923F47F7323F00303043382
:103460008365806D5DF8044B704723F47F7323F010
:1034700003038365F5E700BFABAAAAAACC31010814
:10348000836A826992B9012B0AD0022B02D00BB158
:1034900000207047C36A13F0807F28D10020704756
:1034A000C36AB3F1C07F24D000207047B2F5005F3B
:1034B00009D0022B25D9032B25D1C36A13F0807FB5
:1034C00023D100207047032B03D8DFE803F0140456
:1034D000140A00207047C36A13F0807F0DD10020CA
:1034E0007047C36AB3F1C07F09D000207047012044
:1034F000704701207047012070470120704701206C
:10350000704701207047002070470120704700007D
:1035100070B50446FFF792F8002C5BD005460223F5
:1035200084F83530002384F834302268136823F09F
:103530000103136023681A6812F0010F0AD0FFF725
:103540007DF8431B052BF5D920236365032084F800
:10355000350070BD1A68204810406168A2680A43AF
:10356000E1680A4321690A4361690A43A1690A4380
:10357000E1690A43216A0A430243616A04291ED0B1
:103580001A602668756925F00705636A1D43042BD8
:1035900007D1A36A1D43E36A1BB12046FFF770FF02
:1035A00090B975612046FFF749FFE26D3F239340D4
:1035B000836000206065012384F83530C9E7E16A43
:1035C000206B01430A43DBE740236365012084F855
:1035D0003500BEE70120BCE73F8010F0F0B583B0B6
:1035E000044600230193724B1D68724BA3FB053503
:1035F000AD0A876D3E68C26D08239340334210D0F8
:1036000003681A6812F0040F0BD01A6822F0040243
:103610001A60C26D08239340BB60436D43F0010301
:103620004365E26D01239340334209D02268526919
:1036300012F0800F04D0BB60636D43F0020363653A
:10364000E26D04239340334209D02268126812F0DD
:10365000020F04D0BB60636D43F004036365E26D49
:1036600010239340334224D02268126812F0080FCE
:103670001FD0BB6023681A6812F4802F0DD01B681E
:1036800013F4002F04D1236C9BB12046984710E01F
:10369000A36C73B1204698470BE01A6812F4807F40
:1036A00003D11A6822F008021A60236C0BB120467D
:1036B0009847E26D20239340334255D02268126828
:1036C00012F0100F50D0BB6094F83530DBB2052BF0
:1036D0000ED023681A6812F4802F33D01B6813F4BD
:1036E000002F2AD1636C002B3ED0204698473BE048
:1036F0002268136823F0160313602268536923F0CD
:1037000080035361236CA3B12268136823F008037C
:103710001360E26D3F239340BB60012384F8353092
:10372000002384F83430236D002B3FD02046984787
:103730003CE0A36C002BE7D1EBE7E36BA3B12046A1
:10374000984711E01A6812F4807F09D11A6822F0B4
:1037500010021A60012384F83530002384F83430D5
:10376000E36B0BB120469847636DFBB1636D13F0BB
:10377000010F17D0052384F835302268136823F031
:1037800001031360019B01330193AB4204D823680A
:103790001B6813F0010FF5D1012384F835300023A5
:1037A00084F83430E36C0BB12046984703B0F0BD89
:1037B00000000020B5814E1B10B40A490C6924F4A6
:1037C00040740C610C6944F440740C610C6944F061
:1037D00001040C610260BFF36F8F43605DF8044B1E
:1037E000704700BF003C0240074B1A6922F4407248
:1037F0001A611A6942F400721A611A6942F00102F0
:103800001A610160704700BF003C0240074B1A6913
:1038100022F440721A611A6942F480721A611A69BC
:1038200042F001021A610180704700BF003C024073
:10383000064B1A6922F440721A611A691A611A69F0
:1038400042F001021A610170704700BF003C024063
:10385000204BDB6813F0100F07D01F4AD36943F0E9
:103860001003D3611B4B1022DA601A4BDB6813F094
:10387000200F07D0184AD36943F00803D361154BD2
:103880002022DA60134BDB6813F0400F07D0124A96
:10389000D36943F00403D3610E4B4022DA600D4B31
:1038A000DB6813F0800F07D00B4AD36943F00203A3
:1038B000D361084B8022DA60064BDB6813F0020FFD
:1038C00007D0054AD36943F02003D361014B02229C
:1038D000DA607047003C0240300F0020094B1B6942
:1038E000002B01DB00207047064B074A5A6002F1AB
:1038F00088325A601B69002B01DB002070470120D1
:10390000704700BF003C024023016745034A13692A
:1039100043F0004313610020704700BF003C0240A9
:1039200038B50446144B0022DA61FEF787FE0546DF
:10393000124BDB6813F4803F0AD0B4F1FF3FF7D09D
:1039400024B1FEF77BFE401BA042F1D903200DE01D
:103950000A4BDB6813F0010F02D0084B0122DA603A
:10396000064BDB6813F0F20F01D1002038BDFFF7E2
:103970006FFF0120FAE700BF300F0020003C02403B
:10398000F8B516461B4A127E012A30D004460D4671
:103990001F46184B01221A764CF25030FFF7C0FF39
:1039A00090B9ACB1012C18D0022C1BD032463B464A
:1039B0002846FFF701FF4CF25030FFF7B1FF0E4AE7
:1039C000136923F0010313610A4B00221A76F8BD34
:1039D000F1B22846FFF72CFFEDE7B1B22846FFF71A
:1039E00015FFE8E731462846FFF7FEFEE3E7022031
:1039F000EDE700BF300F0020003C0240074B196983
:103A000021F440711961196941F0040119611A69C1
:103A100042EA002242F480321A617047003C0240C0
:103A200049B1012921D0022902D04FF4407C04E0A1
:103A30004FF4007C01E04FF0000C0D4B196921F4AC
:103A4000407119611A6942EA0C021A611A6922F07E
:103A5000F8021A611A6942EAC00040F002001861D7
:103A60001A6942F480321A6170474FF4807CE4E7AF
:103A7000003C0240164B1B6813F4007F10D0144B1F
:103A80001A6822F400721A601A6842F400621A601E
:103A90001A6822F400621A601A6842F400721A600E
:103AA0000B4B1B6813F4806F10D0094B1A6822F47B
:103AB00080621A601A6842F480521A601A6822F40E
:103AC00080521A601A6842F480621A60704700BF20
:103AD000003C0240F8B5224B1B7E012B3ED0044631
:103AE0000E461F4B01221A764CF25030FFF718FF9A
:103AF000074670BB4FF0FF3333602368012B16D0AD
:103B0000A568E368A2681344AB4220D9217C28460B
:103B1000FFF786FF4CF25030FFF702FF114A13699E
:103B200023F0FA031361074680B90135E9E76168BC
:103B3000207CFFF763FF4CF25030FFF7F1FE0746A1
:103B4000084A136923F00403136100E03560FFF7AE
:103B500091FF034B00221A763846F8BD0227FBE797
:103B6000300F0020003C024000230F2B00F2E480C5
:103B700070B582B060E085685E000324B44025EA39
:103B80000405CC68B4402C438460456825EA0205EE
:103B90004C68C4F300129A402A4342605AE0DC08A1
:103BA000083450F8246003F0070295000F22AA4061
:103BB00026EA020E0A69AA4042EA0E0240F82420D0
:103BC0005CE0072200E0002202FA0EF22A430234EF
:103BD0005A4D45F824205A4A94686FEA0C0224EAA8
:103BE0000C054E6816F4801F01D04CEA0405544CB5
:103BF000A560E46802EA04054E6816F4001F01D0CF
:103C00004CEA04054E4CE560646802EA04054E681F
:103C100016F4003F01D04CEA0405494C6560246865
:103C200022404D6815F4803F01D04CEA0402444C18
:103C3000226001330F2B7DD801229A400C6804EAE0
:103C4000020C32EA0404F4D14C6804F00304013C91
:103C5000012C90D94A6802F00302032A09D0C468F3
:103C60005D000322AA4024EA02048A68AA40224393
:103C7000C2604A6802F00302022A90D004684FEA48
:103C8000430E032202FA0EF224EA02044A6802F00A
:103C9000030202FA0EF2224302604A6812F4403F25
:103CA000C7D000220192274A546C44F480445464E3
:103CB000526C02F480420192019A9C08A51C1F4A92
:103CC00052F8255003F003024FEA820E0F2202FA47
:103CD0000EF225EA02051C4A90423FF474AF02F549
:103CE000806290421AD002F58062904218D002F5AC
:103CF0008062904216D002F58062904214D002F5A4
:103D00008062904212D002F58062904210D002F59B
:103D1000806290423FF455AF082255E7012253E7F5
:103D2000022251E703224FE704224DE705224BE729
:103D3000062249E702B070BD704700BF003801405D
:103D4000003C014000380240000002400AB181619D
:103D5000704709048161704708B5054B5B690342F0
:103D600000D108BD024B586106F0FEF8F9E700BF2C
:103D7000003C01402DE9F04383B0D0F8008001EB16
:103D8000C10300EB8303DA6D5B6D9A4254D807469A
:103D90000C469B1A01EBC10200EB8202926C9A4224
:103DA00000D31A4602F103094FEA990915E006F11A
:103DB00003094FEA990904EBC40507EB8505E96C93
:103DC0003B7C0093B3B2E2B2404602F008FCEB6CDD
:103DD0003344EB64EB6D3344EB6508EB441303F5BC
:103DE00010639B699BB24B4512D304EBC40207EBF3
:103DF0008202D16D536D99420AD24BB15B1A04EB2A
:103E0000C40207EB8202966C9E42D0D31E46CEE7D8
:103E100004EBC40007EB80077A6DFB6D9A420FD864
:103E200004F00F040123A340D8F8344824EA030423
:103E3000C8F83448002000E0012003B0BDE8F0835A
:103E40000020FAE770B58AB0002800F0908005469F
:103E5000046890F8BD343BB3032385F8BD34E36BAD
:103E600013F4807F01D100232B61286802F0D2F87F
:103E70002C4654F8106BEC460FCCACE80F000FCC7E
:103E8000ACE80F0094E803008CE803002B1D0ECB78
:103E9000304602F001F8044658B1022385F8BD34DB
:103EA000012420460AB070BD80F8BC3405F002FC45
:103EB000D2E70021286802F0A9FD234616E003EBB3
:103EC000C30205EB8202012182F83D1082F83C30EA
:103ED000A2F84430002182F840109164D16403EBD1
:103EE000C30205EB820251650133DBB269688B4284
:103EF000E5D316E004EBC40305EB8303002283F84B
:103F00007D2283F87C4283F88022C3F88822C3F89C
:103F10008C2204EBC40305EB8303C3F89422013421
:103F2000E4B2A142E6D82C4654F8106BEC460FCC14
:103F3000ACE80F000FCCACE80F0094E803008CE86D
:103F400003002B1D0ECB304602F0C0F8044620B112
:103F5000022385F8BD340124A3E7002385F8383017
:103F6000012385F8BD34286802F00DFD99E701248E
:103F700097E7026890F8BC34012B19D010B50446BD
:103F8000012380F8BC34836A012B09D0206802F039
:103F90003BF8206802F0E9FC002084F8BC0410BD66
:103FA0008369012BF2D0936B43F480339363EDE785
:103FB0000220704770B504460D460068066C00EBA1
:103FC000411303F530639A682169012911D03849FA
:103FD0008E4256D03DB905EBC50304EB8303D3F8FD
:103FE0009432002B5ED0E9B2204605F0ADFB0020F4
:103FF00070BD12F0080F09D02E498E42F7D912F485
:10400000004FF4D04FF400429A60F0E712F0200F16
:1040100002D020229A60EAE712F0280FE7D1254962
:104020008E4206D912F4004F03D04FF400429A603A
:10403000DDE705EBC50204EB8202D2F898121B699A
:10404000C3F31203CB1AC2F89C327DB905EBC5024B
:1040500004EB8202D2F894226AB105EBC50204EBAC
:104060008202D2F88C120B44C2F88C32E9B220469C
:1040700005F06AFBBBE704F2C442012102F008FD2F
:10408000F4E712F4004F03D04FF400429A60AEE719
:1040900012F0200F01D020229A60E9B2204605F0EC
:1040A00053FBA4E704F2C442002102F0F1FC9AE7BA
:1040B0000A31544F0A30544F38B5044603681D6C1A
:1040C00003EB4113D3F8081B0E4A954207D903F5B9
:1040D000306311F4004F02D04FF400429A60204642
:1040E00005F02AFB074B9D4202D92369012B01D021
:1040F000002038BD04F2C4420121206802F0C8FC4F
:10410000F6E700BF0A30544F90F8BC34012B0DD0B5
:1041100010B50446012380F8BC3480F838100068DC
:1041200002F013FC002084F8BC0410BD022070478C
:1041300038B505468C4611F0800F29D101F00F0EDD
:104140000EEBCE04A40004F51E740444211D0EEBF6
:10415000CE0E00EB8E0E00208EF87D020CF00F0CC0
:1041600081F800C0CA600B714A780AB1A1F808C092
:10417000022B1DD095F8BC34012B1CD0012385F8EF
:10418000BC34286802F07BF8002085F8BC0438BDF8
:1041900001F00F0000EBC0018900383129440431DF
:1041A00000EBC00005EB8000012480F83D40D5E71E
:1041B00000234B71DEE70220E9E710B504460A460A
:1041C00011F0800F20D101F00F0000EBC0039B0025
:1041D00003F51E732344191D00EBC00004EB80009F
:1041E000002380F87D3202F00F020A7094F8BC348C
:1041F000012B19D0012384F8BC34206802F08EF81A
:10420000002084F8BC0410BD01F00F0000EBC003D7
:104210009B0038332344191D00EBC00004EB8000E1
:10422000012380F83D30DEE70220ECE710B501F015
:104230000F0404EBC401890001F51E71014404312F
:1042400004EBC40C00EB8C0CCCF88C22CCF8943230
:104250000023CCF89C328CF87D328CF87C420369C8
:10426000012B06D064B9DAB2006802F0C7F800206A
:1042700010BD04EBC40C00EB8C0CCCF89022F1E7E1
:10428000DAB2006802F0C2F9F1E701F00F0101EBC8
:10429000C10100EB8101D1F89C02704710B501F01B
:1042A0000F0404EBC401890038310144043104EBEC
:1042B000C40C00EB8C0CCCF84C20CCF85430002310
:1042C000CCF85C3001238CF83D308CF83C4003691D
:1042D000012B06D064B9DAB2006802F08FF8002032
:1042E00010BD04EBC40C00EB8C0CCCF85020F1E7B3
:1042F000DAB2006802F08AF9F1E738B501F00F058B
:104300004268954239D804460B4611F0800F1FD100
:1043100001EBC101890001F51E710144043103EB79
:10432000C30300EB8303002283F87D2201238B70FB
:104330000D7094F8BC34012B21D0012384F8BC34D7
:10434000206802F0A7FA8DB1002084F8BC0438BDC3
:1043500005EBC501890038310144043105EBC50383
:1043600000EB8303012283F83D20DFE704F2C4421F
:10437000217C206802F08CFBE6E70120E7E70220C1
:10438000E5E701F00F034268934231D810B50446C7
:1043900011F0800F1ED103EBC301890001F51E71DE
:1043A0000144043103EBC30200EB8202002082F8D7
:1043B0007D0200228A700B7094F8BC34012B19D056
:1043C000012384F8BC34206802F091FA002084F8BC
:1043D000BC0410BD03EBC301890038310144043132
:1043E00003EBC30200EB8202012082F83D00E0E70C
:1043F000012070470220ECE708B511F0800F0CD1C6
:1044000001F00F0101EBC101890001F51E710144AA
:104410000431006802F084F808BD01F00F0101EBDF
:10442000C1018900383101440431F2E72DE9F04F30
:1044300083B004460568284602F0E4FA10B103B0E0
:10444000BDE8F08F0646206802F0ABFA0028F6D0EF
:1044500005F50067BB68C3F30D23C4F8FC3420687E
:1044600002F09FFA10F0020F04D02268536903F0A3
:1044700002035361206802F094FA10F0100F13D079
:104480002268936923F010039361D5F8208008F027
:104490000F09C8F34343022B4BD0062B6FD0226881
:1044A000936943F010039361206802F07AFA10F4E4
:1044B000002F76D1206802F074FA10F4802F40F0BB
:1044C000E080206802F06DFA0028C0F26381206865
:1044D00002F067FA10F4006F09D0BB6813F0010F07
:1044E00040F070812268536903F4006353612068CF
:1044F00002F057FA10F4805F40F06881206802F003
:1045000050FA10F4005F40F0B581206802F049FADB
:1045100010F0080F40F0C681206802F042FA10F057
:10452000800F00F0D981AB6923F08003AB610126D5
:10453000C2E147F6F07318EA030FB0D04FEA181B38
:104540004FEAC903019309EBC90A04EB8A0AC8F3CD
:104550000A12DAF88C12284602F072F9CBF30A0B31
:10456000DAF88C325B44CAF88C32019B4B4404EB82
:104570008303D3F89C325B44CAF89C328FE708224D
:1045800004F2C441284602F05BF9C8F30A1809EBAB
:10459000C90204EB8202D2F89C324344C2F89C3236
:1045A0007DE7206802F001FA8046B14635E005EB70
:1045B00049130122C3F8082B49462046FFF7FAFCAD
:1045C0003CE005EB49130822C3F8082B4946204676
:1045D000FFF772FD35E009EBC90304EB830393F8A1
:1045E0007F32012B41D005EB49130222C3F8082B7F
:1045F0001AF0200F04D005EB49132022C3F8082B32
:104600001AF4005F05D005EB49134FF40052C3F8CC
:10461000082B09F101094FEA5808B8F1000F3FF4DF
:1046200049AF18F0010FF4D05FFA89FB59462068B2
:1046300002F0CBF9824610F0010FB8D11AF0080F42
:10464000BFD11AF0100F04D005EB49131022C3F8A4
:10465000082B1AF0020FCBD06B6913F0800FBAD081
:104660007B6843F480637B60B5E709EBC90304EB27
:104670008303002283F87F225946204605F0B6F8CE
:10468000B1E7206802F099F98046B14625E0594625
:10469000204605F065F81AF0080F04D005EB491321
:1046A0000822C3F808291AF0100F04D005EB4913AB
:1046B0001022C3F808291AF0400F04D005EB491363
:1046C0004022C3F808291AF0020F40D11AF0800FD7
:1046D0005BD109F101094FEA5808B8F1000F3FF426
:1046E000F0AE18F0010FF4D05FFA89FB594620684C
:1046F00002F074F9824610F0010FCCD009F00F03DC
:10470000012101FA03F27B6B23EA02037B6305EBD1
:104710004913C3F8081923698B42B8D109EBC903BF
:1047200004EB8303996CDA6C0A44DA64B9F1000F84
:10473000ADD109EBC90304EB83035B6D002BA6D15C
:1047400004F2C4420121206802F0A2F99FE7494621
:10475000284601F065FC09EBC90304EB830393F8D9
:104760003F30012B05D005EB49130222C3F808297D
:10477000ACE709EBC90304EB8303002283F83F2075
:104780005946204605F038F8EDE749462046FFF740
:10479000F1FA9EE77B6823F001037B6094F8F43420
:1047A000012B08D0204605F01BF82268536903F05E
:1047B000004353618BE6002184F8F414204600F096
:1047C00041F9F2E7204604F0F3FF8BE67B6823F023
:1047D00001037B601021206801F022FC1AE005EB48
:1047E00046134FF67F31C3F80819D3F8002922F495
:1047F0000012C3F80029C3F8081BD3F8002B22F4D9
:104800000012C3F8002BD3F8002B42F00062C3F86B
:10481000002B01366368B342E1D8FB6943F0011312
:10482000FB61236BDBB1D7F8843043F00B03C7F88F
:1048300084307B6C43F00B037B64D5F8003823F4A1
:10484000FE63C5F8003804F2C442217C206802F0FF
:104850001FF92268536903F4805353614EE67B6964
:1048600043F4005343F02B037B613B6943F00B039C
:104870003B61E2E7206802F0FAF8206801F0EEFC04
:10488000E060266800F0DEFB0146227B304601F046
:1048900049FB204604F075FF2268536903F4005376
:1048A000536132E6204604F066FF2268536903F044
:1048B0000803536130E601366368B3420CD906EB56
:1048C000C60304EB830393F87F32012BF3D1F1B2DB
:1048D0002046FFF791FDEEE7206802F062F810F441
:1048E000801F27D1206802F05CF810F4001F5BD015
:1048F000012328E001366368B3421DD905EB461356
:10490000D3F8002906EBC60304EB830393F8403089
:10491000012BEFD1002AEDDA06EBC60304EB83038B
:10492000012283F83F2066F07F01C9B22046FFF7DD
:1049300063FDDFE70126DEE72268536903F4801395
:104940005361CFE7013362689A4228D905EB4312DD
:10495000D2F8001B03EBC30204EB820292F8802220
:10496000012AEFD10029EDDA01F48031D4F8FC24DA
:1049700002F001029142E5D103EBC30204EB820293
:10498000012182F87F12AA6942F08002AA616A6955
:1049900012F0800FD6D17B6843F400737B602268ED
:1049A000536903F400135361206801F0FAFF10F01B
:1049B000804F10D1206801F0F4FF10F0040F3FF495
:1049C0003EAD23685D6815F0040F0DD12268536871
:1049D0002B43536033E5204604F014FF22685369EB
:1049E00003F080435361E5E7204604F011FFEDE753
:1049F00010B40468606A31B940EA0240A062002045
:104A00005DF8044B70478C46A36A00EB134000230B
:104A100008E003F1400104EB8101496800EB11401B
:104A20000133DBB20CF1FF318B42F2D340EA02409A
:104A30000CF13F0104EB81014860E0E70368596233
:104A40000020704770470000002800F0E08170B53A
:104A500082B00446036813F0010F3BD09F4B9B6864
:104A600003F00C03042B2CD09C4B9B6803F00C032D
:104A7000082B21D06368B3F5803F4FD0B3F5A02F4A
:104A800052D0964B1A6822F480321A601A6822F4C7
:104A900080221A606368002B50D0FDF7CFFD0546D9
:104AA0008E4B1B6813F4003F14D1FDF7C7FD401B6C
:104AB0006428F5D90320B1E1884B5B6813F4800FBB
:104AC000D8D0864B1B6813F4003F03D06368002BDB
:104AD00000F09F81236813F0020F54D07F4B9B6836
:104AE00013F00C0F3ED07D4B9B6803F00C03082B9A
:104AF00033D0E368002B68D0794B01221A60FDF7B0
:104B00009DFD0546754B1B6813F0020F54D1FDF750
:104B100095FD401B0228F5D903207FE16F4A1368F9
:104B200043F480331360B5E76C4B1A6842F480227B
:104B30001A601A6842F480321A60ABE7FDF77EFD16
:104B40000546664B1B6813F4003FC3D0FDF776FDA6
:104B5000401B6428F5D9032060E1604B5B6813F4C7
:104B6000800FC6D15D4B1B6813F0020F03D0E368C2
:104B7000012B40F05081594A136823F0F803216952
:104B800043EAC1031360236813F0080F42D063693E
:104B90006BB3534B0122C3F8802EFDF74FFD054642
:104BA0004E4B5B6F13F0020F34D1FDF747FD401BF6
:104BB0000228F5D9032031E1484A136823F0F803AD
:104BC000216943EAC1031360DDE7454B00221A6007
:104BD000FDF734FD0546414B1B6813F0020FD2D0A0
:104BE000FDF72CFD401B0228F5D9032016E13C4BB4
:104BF0000022C3F8802EFDF721FD0546374B5B6F81
:104C000013F0020F06D0FDF719FD401B0228F5D95D
:104C1000032003E1236813F0040F77D02F4B1B6CA4
:104C200013F0805F33D1002301932C4B1A6C42F0B8
:104C300080521A641B6C03F080530193019B012581
:104C4000284B1B6813F4807F23D0A368012B34D03A
:104C5000052B38D0214B1A6F22F001021A671A6F08
:104C600022F004021A67A368002B3DD0FDF7E6FC92
:104C700006461A4B1B6F13F0020F46D1FDF7DEFC00
:104C8000801B41F288339842F3D90320C6E0002507
:104C9000D6E7144A136843F480731360FDF7CEFC23
:104CA0000646104B1B6813F4807FCED1FDF7C6FC7F
:104CB000801B0228F5D90320B0E0084A136F43F0A7
:104CC00001031367CFE7054B1A6F42F004021A671E
:104CD0001A6F42F001021A67C5E700BF00380240B0
:104CE0000000474200700040FDF7A8FC0646524B0A
:104CF0001B6F13F0020F08D0FDF7A0FC801B41F2E0
:104D000088339842F3D9032088E0EDB9A369002BDA
:104D100000F08380484A926802F00C02082A51D0C1
:104D2000022B17D0454B00221A66FDF787FC04467C
:104D3000414B1B6813F0007F42D0FDF77FFC001B46
:104D40000228F5D9032069E03B4A136C23F0805315
:104D50001364DBE7394B00221A66FDF76FFC05464A
:104D6000354B1B6813F0007F06D0FDF767FC401B36
:104D70000228F5D9032051E0E369226A1343626AED
:104D800043EA8213A26A5208013A43EA0243E26A02
:104D900043EA0263284A5360284B01221A66FDF752
:104DA0004DFC0446244B1B6813F0007F06D1FDF731
:104DB00045FC001B0228F5D903202FE000202DE040
:104DC00000202BE0012B2BD01B4B5B6803F48001F0
:104DD000E269914226D103F03F02216A8A4223D13F
:104DE000616A47F6C0721A40B2EB811F1ED103F40C
:104DF0004031A26A5208013AB1EB024F18D103F0D8
:104E00007063E26AB3EB026F14D1002006E0012068
:104E10007047012002E0012000E0002002B070BDD8
:104E20000120FBE70120F9E70120F7E70120F5E782
:104E30000120F3E70120F1E700380240000047427B
:104E400008B5254B9B6803F00C03042B3FD0082BBF
:104E50003FD1214B5A6802F03F025B6813F4800F88
:104E600012D01D4B5968C1F388111C480023A1FBC7
:104E70000001FBF759FC184B5B68C3F30143013396
:104E80005B00B0FBF3F025E0134B5968C1F3881CBD
:104E90004FEA4C11B1EB0C006EEB0E0E4FEA8E1385
:104EA00043EA90638101091A63EB0E03DB0043EAD6
:104EB0005173C90011EB0C0C43F10003990200235C
:104EC0004FEA8C2041EA9C51FBF72EFCD3E70348C4
:104ED00000E0034808BD00BF00380240001BB700D7
:104EE0000024F400002800F09B8070B50D460446B5
:104EF0004F4B1B6803F007038B4208D2CBB24C4ADE
:104F00001370136803F007038B4240F08B80236813
:104F100013F0020F17D013F0040F04D0454A936822
:104F200043F4E0539360236813F0080F04D0414A20
:104F3000936843F4604393603E4A936823F0F00320
:104F4000A1680B439360236813F0010F32D06368AC
:104F5000012B21D09A1E012A25D9364A126812F057
:104F6000020F61D033498A6822F0030213438B6039
:104F7000FDF764FB06462F4B9B6803F00C03626849
:104F8000B3EB820F16D0FDF759FB801B41F288333B
:104F90009842F0D9032042E0264A126812F4003FFA
:104FA000E0D101203BE0234A126812F0007FD9D102
:104FB000012034E01E4B1B6803F00703AB4207D906
:104FC000EAB21B4B1A701B6803F00703AB422DD1EA
:104FD000236813F0040F06D0164A936823F4E053B5
:104FE000E1680B439360236813F0080F07D0114A60
:104FF000936823F46043216943EAC1039360FFF798
:105000001FFF0C4B9B68C3F303130B4AD35CD840C0
:105010000A4B18600A4B1868FDF7C4FA002070BDEF
:10502000012070470120FAE70120F8E70120F6E7A8
:10503000003C024000380240B4310108000000206A
:1050400008000020014B1868704700BF00000020D6
:1050500008B5FFF7F7FF044B9B68C3F38223034AAD
:10506000D35CD84008BD00BF00380240C4310108FD
:1050700008B5FFF7E7FF044B9B68C3F34233034ACD
:10508000D35CD84008BD00BF00380240C4310108DD
:1050900098B110B5044643795BB10223637122686D
:1050A000136843F004031360012363710020A060C0
:1050B00010BD0371FCF724FCEFE7012070470000EE
:1050C0002DE9F04782B00546884617461E46FDF793
:1050D000B5FA0A9B1B1A03EB0609FDF7AFFA8246E5
:1050E0002B4B1B68C3F3CB3309FB03F301932B68F2
:1050F0009C6838EA04030CBF4FF0010C4FF0000C21
:10510000BC4540D0B6F1FF3FF1D0FDF797FAA0EBD8
:105110000A0048450AD2B9F1000F07D0019A02B13E
:105120004A46019B013B01939146E0E72A68536898
:1051300023F0E00353606B68B3F5827F0BD0AB6A5A
:10514000B3F5005F14D0012385F85130002385F8B2
:105150005030032018E0AB68B3F5004F02D0B3F530
:10516000806FECD12A68136823F040031360E6E7F0
:105170002A68136823F4005313602A68136843F401
:1051800000531360DFE7002002B0BDE8F08700BFE6
:105190000000002010B584B00446164B1868164B6A
:1051A000A3FB0030400D4FF47A7303FB00F0039033
:1051B0006368B3F5827F0BD0039BBBB1039B013BBC
:1051C000039323689B6813F0800FF5D100200EE055
:1051D00000920B46002280212046FFF771FF30B17C
:1051E000636D43F020036365032000E0002004B0FA
:1051F00010BD00BF00000020819F5E1600285AD01D
:1052000010B50446436A33B94368B3F5827F05D0CD
:105210000023C36102E00023036143610023A36212
:1052200094F85130002B40D0022384F8513022688A
:10523000136823F040031360636803F48273A26869
:1052400002F404421343E26802F400621343226949
:1052500002F002021343626902F001021343A269E1
:1052600002F400721343E26902F038021343226A27
:1052700002F080021343A26A02F400522168134331
:105280000B60638B03F00403626A02F01002216872
:1052900013434B602268D36923F40063D361002079
:1052A0006065012384F8513010BD84F850302046E9
:1052B000FCF762FBB8E7012070472DE9F04383B0AB
:1052C0001F460A9D90F85030012B00F010810446D3
:1052D00088469146012380F85030FDF7AFF9064625
:1052E00094F85130DBB26268012B0AD0B2F5827FAC
:1052F00040F0E380A268002A40F0E980042B40F0EF
:10530000E880B8F1000F00F0E680B9F1000F00F07E
:10531000E480002F00F0E38094F85130DBB2042BDE
:1053200002D0052384F8513000236365C4F8389017
:10533000E787A787C4F83080E786A786236463647D
:1053400023681A6812F0400F03D11A6842F0400235
:105350001A60E368B3F5006F11D063680BB1012FD9
:105360000BD1226B236812781A73236B01332363EA
:10537000E38E9BB2013B9BB2E38601276BE063683F
:105380000BB1012F0BD1226B23681288DA60236BDB
:1053900002332363E38E9BB2013B9BB2E38601277A
:1053A0001CE023689A6812F0010F0ED0E28F92B2CF
:1053B0005AB1DA68A36B1A80A36B0233A363E38F3D
:1053C0009BB2013B9BB2E3870127FDF737F9801BB6
:1053D000A84203D3B5F1FF3F40F08380E38E9BB238
:1053E0001BB9E38F9BB2002B53D023689A6812F04D
:1053F000020FD6D0E28E92B2002AD2D0002FD0D0A7
:10540000226B1288DA60236B02332363E38E9BB234
:10541000013B9BB2E3860027C3E723689A6812F03A
:10542000010F0ED0E28F92B25AB1DA68A36B1A70F4
:10543000A36B0133A363E38F9BB2013B9BB2E38772
:105440000127FDF7FBF8831BAB4202D3B5F1FF3F09
:1054500049D1002D49D0E38E9BB213B9E38F9BB2A3
:10546000BBB123689A6812F0020FD6D0E28E92B2D6
:10547000002AD2D0002FD0D0226B12781A73236B5F
:1054800001332363E38E9BB2013B9BB2E38600278B
:10549000C3E7324629462046FFF77CFE48B9A36899
:1054A00063B901932368DA6801929B680193019BB9
:1054B00004E020236365012000E00220012384F83A
:1054C0005130002384F8503003B0BDE8F08302204F
:1054D000F4E70220F2E70120F0E70120EEE70120E7
:1054E000ECE70320EAE70320E8E70320E6E70220F1
:1054F000EAE7000030B4036A23F001030362036AA1
:105500004268846924F073040D682C4323F0020C74
:105510008B6843EA0C03104DA84203D005F5806563
:10552000A84205D123F00803CD682B4323F00403E0
:10553000094DA84203D005F58065A84205D122F4A3
:1055400040724D692A438D692A43426084614A68EA
:105550004263036230BC70470000014030B4036A0C
:1055600023F480730362036A4268C46924F0730CF5
:105570000C6844EA0C0523F400738C6843EA0423A6
:10558000114CA04203D004F58064A04206D123F45C
:105590000063CC6843EA042323F480630A4CA042EE
:1055A00003D004F58064A04207D122F440524C6934
:1055B00042EA04128C6942EA04124260C5614A68F8
:1055C000C263036230BC70470000014030B4036A1C
:1055D00023F480530362036A4468C26922F4E642FA
:1055E0000D6842EA052223F400538D6843EA05332F
:1055F000094DA84203D005F58065A84204D124F4E2
:1056000080444D6944EA85144460C2614A6802647A
:10561000036230BC704700BF0000014010B4036A51
:10562000046A24F001040462846924F0F00C4CEA5A
:10563000021223F00A030B43826103625DF8044BFC
:10564000704710B4046A24F0100404628469036A89
:1056500024F4704C4CEA023223F0A00343EA011315
:10566000826103625DF8044B7047836823F0700326
:105670000B4343F0070383607047000090F83D3010
:10568000DBB2012B32D1022380F83D300368194A86
:10569000934220D0B3F1804F1DD0A2F57C429342BB
:1056A00019D002F58062934215D002F580629342D0
:1056B00011D002F5784293420DD002F57052934218
:1056C00009D0A2F59432934205D01A6842F0010243
:1056D0001A60002070479A6802F00702062A07D075
:1056E0001A6842F001021A600020704701207047DA
:1056F00000207047000001400368304A904212D0F9
:10570000B0F1804F0FD0A2F57C4290420BD002F551
:105710008062904207D002F58062904203D002F589
:105720007842904203D123F070034A681343234A1E
:1057300090422AD0B0F1804F27D0A2F57C4290420F
:1057400023D002F5806290421FD002F58062904221
:105750001BD002F57842904217D002F57052904269
:1057600013D002F5806290420FD002F58062904221
:105770000BD0A2F59832904207D002F58062904299
:1057800003D002F58062904203D123F44073CA68CB
:10579000134323F080034A69134303608B68C36299
:1057A0000B688362054B984203D003F580639842EF
:1057B00001D10B690363012343617047000001407D
:1057C00040B310B5044690F83D30F3B1022384F89D
:1057D0003D30214651F8040BFFF78EFF012384F87A
:1057E000463084F83E3084F83F3084F8403084F806
:1057F000413084F8423084F8433084F8443084F8EF
:10580000453084F83D30002010BD80F83C30FCF776
:105810000DFADBE70120704740B310B5044690F85D
:105820003D30F3B1022384F83D30214651F8040B9A
:10583000FFF762FF012384F8463084F83E3084F895
:105840003F3084F8403084F8413084F8423084F8A6
:10585000433084F8443084F8453084F83D300020EB
:1058600010BD80F83C30FCF7A5F9DBE7012070475C
:1058700030B4036A23F010030362036A4468826948
:1058800022F4E6420D6842EA052223F020038D68E7
:1058900043EA0513114DA84203D005F58065A842DF
:1058A00006D123F08003CD6843EA051323F04003BB
:1058B0000A4DA84203D005F58065A84207D124F41B
:1058C00040644D6944EA85048D6944EA8504446076
:1058D00082614A688263036230BC70470000014005
:1058E00038B590F83C30012B66D004460D460123B4
:1058F00080F83C300C2A5AD8DFE802F00759595991
:105900001B5959593059595944000068FFF7F2FDA5
:105910002268936943F0080393612268936923F036
:10592000040393612268936929690B439361002002
:105930003EE00068FFF79CFF2268936943F4006330
:1059400093612268936923F4806393612268936969
:10595000296943EA01239361002029E00068FFF7E9
:10596000FDFD2268D36943F00803D3612268D3693F
:1059700023F00403D3612268D36929690B43D361FF
:10598000002015E00068FFF721FE2268D36943F488
:105990000063D3612268D36923F48063D3612268F2
:1059A000D369296943EA0123D361002000E0012083
:1059B000002384F83C3038BD0220FCE710B4846832
:1059C00024F47F4C42EA03220A4342EA0C0282603A
:1059D0005DF8044B704790F83C30012B78D010B53F
:1059E0000446012380F83C30022380F83D300268F1
:1059F000936823F47F4323F0770393600B68602B55
:105A00004CD029D8402B54D00CD9502B22D1CA6865
:105A100049680068FFF702FE50212068FFF725FE65
:105A2000002005E0202B0DD009D9302B0AD0012011
:105A3000012384F83D30002384F83C3010BD0BB1C5
:105A4000102B05D119462068FFF70FFE0020EFE765
:105A50000120EDE70120EBE7B3F5805F34D0B3F52B
:105A6000005F0CD1CB684A6889680068FFF7A6FF21
:105A70002268936843F4804393600020D8E7702B3A
:105A800024D1CB684A6889680068FFF797FF2268CD
:105A9000936843F0770393600020C9E7CA684968B8
:105AA0000068FFF7CEFD60212068FFF7DEFD0020D3
:105AB000BEE7CA6849680068FFF7B0FD402120686A
:105AC000FFF7D3FD0020B3E70020B1E70120AFE7E7
:105AD0000220704701F01F01012303FA01FC036A51
:105AE00023EA0C030362036A02FA01F10B43036227
:105AF0007047000010B504460846002942D194F8CA
:105B00003E30DBB2013B18BF0123002B6ED10028D1
